{
  "contractName": "ExampleTokenCrowdsale",
  "abi": [
    {
      "constant": true,
      "inputs": [],
      "name": "rate",
      "outputs": [
        {
          "name": "",
          "type": "uint256"
        }
      ],
      "payable": false,
      "stateMutability": "view",
      "type": "function",
      "signature": "0x2c4e722e"
    },
    {
      "constant": true,
      "inputs": [],
      "name": "cap",
      "outputs": [
        {
          "name": "",
          "type": "uint256"
        }
      ],
      "payable": false,
      "stateMutability": "view",
      "type": "function",
      "signature": "0x355274ea"
    },
    {
      "constant": true,
      "inputs": [],
      "name": "weiRaised",
      "outputs": [
        {
          "name": "",
          "type": "uint256"
        }
      ],
      "payable": false,
      "stateMutability": "view",
      "type": "function",
      "signature": "0x4042b66f"
    },
    {
      "constant": true,
      "inputs": [
        {
          "name": "",
          "type": "address"
        }
      ],
      "name": "contributions",
      "outputs": [
        {
          "name": "",
          "type": "uint256"
        }
      ],
      "payable": false,
      "stateMutability": "view",
      "type": "function",
      "signature": "0x42e94c90"
    },
    {
      "constant": true,
      "inputs": [],
      "name": "capReached",
      "outputs": [
        {
          "name": "",
          "type": "bool"
        }
      ],
      "payable": false,
      "stateMutability": "view",
      "type": "function",
      "signature": "0x4f935945"
    },
    {
      "constant": true,
      "inputs": [],
      "name": "wallet",
      "outputs": [
        {
          "name": "",
          "type": "address"
        }
      ],
      "payable": false,
      "stateMutability": "view",
      "type": "function",
      "signature": "0x521eb273"
    },
    {
      "constant": false,
      "inputs": [
        {
          "name": "beneficiary",
          "type": "address"
        }
      ],
      "name": "buyTokens",
      "outputs": [],
      "payable": true,
      "stateMutability": "payable",
      "type": "function",
      "signature": "0xec8ac4d8"
    },
    {
      "constant": true,
      "inputs": [],
      "name": "token",
      "outputs": [
        {
          "name": "",
          "type": "address"
        }
      ],
      "payable": false,
      "stateMutability": "view",
      "type": "function",
      "signature": "0xfc0c546a"
    },
    {
      "inputs": [
        {
          "name": "_rate",
          "type": "uint256"
        },
        {
          "name": "_wallet",
          "type": "address"
        },
        {
          "name": "_token",
          "type": "address"
        },
        {
          "name": "_cap",
          "type": "uint256"
        }
      ],
      "payable": false,
      "stateMutability": "nonpayable",
      "type": "constructor",
      "signature": "constructor"
    },
    {
      "payable": true,
      "stateMutability": "payable",
      "type": "fallback"
    },
    {
      "anonymous": false,
      "inputs": [
        {
          "indexed": true,
          "name": "purchaser",
          "type": "address"
        },
        {
          "indexed": true,
          "name": "beneficiary",
          "type": "address"
        },
        {
          "indexed": false,
          "name": "value",
          "type": "uint256"
        },
        {
          "indexed": false,
          "name": "amount",
          "type": "uint256"
        }
      ],
      "name": "TokensPurchased",
      "type": "event",
      "signature": "0x6faf93231a456e552dbc9961f58d9713ee4f2e69d15f1975b050ef0911053a7b"
    },
    {
      "constant": true,
      "inputs": [],
      "name": "getTokensLeft",
      "outputs": [
        {
          "name": "",
          "type": "uint256"
        }
      ],
      "payable": false,
      "stateMutability": "view",
      "type": "function",
      "signature": "0xde5f9866"
    }
  ],
  "bytecode": "0x608060405234801561001057600080fd5b50604051608080610cf98339810180604052608081101561003057600080fd5b810190808051906020019092919080519060200190929190805190602001909291908051906020019092919050505080848484600160008190555060008311151561007a57600080fd5b600073ffffffffffffffffffffffffffffffffffffffff168273ffffffffffffffffffffffffffffffffffffffff16141515156100b657600080fd5b600073ffffffffffffffffffffffffffffffffffffffff168173ffffffffffffffffffffffffffffffffffffffff16141515156100f257600080fd5b8260038190555081600260006101000a81548173ffffffffffffffffffffffffffffffffffffffff021916908373ffffffffffffffffffffffffffffffffffffffff16021790555080600160006101000a81548173ffffffffffffffffffffffffffffffffffffffff021916908373ffffffffffffffffffffffffffffffffffffffff16021790555050505060008111151561018d57600080fd5b806005819055505083810260078190555050505050610b48806101b16000396000f3fe608060405260043610610099576000357c0100000000000000000000000000000000000000000000000000000000900463ffffffff1680632c4e722e146100a4578063355274ea146100cf5780634042b66f146100fa57806342e94c90146101255780634f9359451461018a578063521eb273146101b9578063de5f986614610210578063ec8ac4d81461023b578063fc0c546a1461027f575b6100a2336102d6565b005b3480156100b057600080fd5b506100b9610357565b6040518082815260200191505060405180910390f35b3480156100db57600080fd5b506100e4610361565b6040518082815260200191505060405180910390f35b34801561010657600080fd5b5061010f61036b565b6040518082815260200191505060405180910390f35b34801561013157600080fd5b506101746004803603602081101561014857600080fd5b81019080803573ffffffffffffffffffffffffffffffffffffffff169060200190929190505050610375565b6040518082815260200191505060405180910390f35b34801561019657600080fd5b5061019f61038d565b604051808215151515815260200191505060405180910390f35b3480156101c557600080fd5b506101ce6103a1565b604051808273ffffffffffffffffffffffffffffffffffffffff1673ffffffffffffffffffffffffffffffffffffffff16815260200191505060405180910390f35b34801561021c57600080fd5b506102256103cb565b6040518082815260200191505060405180910390f35b61027d6004803603602081101561025157600080fd5b81019080803573ffffffffffffffffffffffffffffffffffffffff1690602001909291905050506102d6565b005b34801561028b57600080fd5b506102946103d5565b604051808273ffffffffffffffffffffffffffffffffffffffff1673ffffffffffffffffffffffffffffffffffffffff16815260200191505060405180910390f35b6001600080828254019250508190555060008054905060003490506102fb83826103ff565b6000610306826106cc565b905061031d826004546106ea90919063ffffffff16565b60048190555061032d8482610774565b61033784836107aa565b61034184836107ae565b50506000548114151561035357600080fd5b5050565b6000600354905090565b6000600554905090565b6000600454905090565b60066020528060005260406000206000915090505481565b600060055461039a61036b565b1015905090565b6000600260009054906101000a900473ffffffffffffffffffffffffffffffffffffffff16905090565b6000600754905090565b6000600160009054906101000a900473ffffffffffffffffffffffffffffffffffffffff16905090565b6000674563918244f40000905060006802b5e3af16b188000090506000600660008673ffffffffffffffffffffffffffffffffffffffff1673ffffffffffffffffffffffffffffffffffffffff1681526020019081526020016000205490506000849050600082141515610501576040517f08c379a00000000000000000000000000000000000000000000000000000000081526004018080602001828103825260218152602001807f616c726561647920696e76657374656420696e207468652063726f776473616c81526020017f650000000000000000000000000000000000000000000000000000000000000081525060400191505060405180910390fd5b8381101580156105115750828111155b15156105ab576040517f08c379a000000000000000000000000000000000000000000000000000000000815260040180806020018281038252602a8152602001807f747279696e6720746f2062757920746f6f206c6974746c65206f7220746f6f2081526020017f6d7563682065746865720000000000000000000000000000000000000000000081525060400191505060405180910390fd5b6105b586866107b2565b6106683073ffffffffffffffffffffffffffffffffffffffff16632c4e722e6040518163ffffffff167c010000000000000000000000000000000000000000000000000000000002815260040160206040518083038186803b15801561061a57600080fd5b505afa15801561062e573d6000803e3d6000fd5b505050506040513d602081101561064457600080fd5b810190808051906020019092919050505086026007546107ea90919063ffffffff16565b60078190555061068181836106ea90919063ffffffff16565b600660008873ffffffffffffffffffffffffffffffffffffffff1673ffffffffffffffffffffffffffffffffffffffff16815260200190815260200160002081905550505050505050565b60006106e3600354836107fc90919063ffffffff16565b9050919050565b600080828401905083811015151561076a576040517f08c379a000000000000000000000000000000000000000000000000000000000815260040180806020018281038252600a8152602001807f6d617468206572726f720000000000000000000000000000000000000000000081525060200191505060405180910390fd5b8091505092915050565b6107a682826107816103d5565b73ffffffffffffffffffffffffffffffffffffffff166108a39092919063ffffffff16565b5050565b5050565b5050565b6107bc82826109fa565b6005546107d9826107cb61036b565b6106ea90919063ffffffff16565b111515156107e657600080fd5b5050565b60008082840390508091505092915050565b60008083141561080f576000905061089d565b6000828402905082848281151561082257fe5b04141515610898576040517f08c379a00000000000000000000000000000000000000000000000000000000081526004018080602001828103825260098152602001807f6d756c206572726f72000000000000000000000000000000000000000000000081525060200191505060405180910390fd5b809150505b92915050565b8273ffffffffffffffffffffffffffffffffffffffff1663a9059cbb83836040518363ffffffff167c0100000000000000000000000000000000000000000000000000000000028152600401808373ffffffffffffffffffffffffffffffffffffffff1673ffffffffffffffffffffffffffffffffffffffff16815260200182815260200192505050602060405180830381600087803b15801561094657600080fd5b505af115801561095a573d6000803e3d6000fd5b505050506040513d602081101561097057600080fd5b810190808051906020019092919050505015156109f5576040517f08c379a00000000000000000000000000000000000000000000000000000000081526004018080602001828103825260128152602001807f756e73616665207472616e73616374696f6e000000000000000000000000000081525060200191505060405180910390fd5b505050565b600073ffffffffffffffffffffffffffffffffffffffff168273ffffffffffffffffffffffffffffffffffffffff1614151515610a9f576040517f08c379a00000000000000000000000000000000000000000000000000000000081526004018080602001828103825260118152602001807f62656e6566696369617279206572726f7200000000000000000000000000000081525060200191505060405180910390fd5b60008114151515610b18576040517f08c379a00000000000000000000000000000000000000000000000000000000081526004018080602001828103825260108152602001807f77656920616d6f756e74206572726f720000000000000000000000000000000081525060200191505060405180910390fd5b505056fea165627a7a72305820eae297a8b1663609b12c84c47e980324b9de87cf4c9ad6ac59bfcf0113e992890029",
  "source": "pragma solidity ^0.5.0;\n\n\nimport \"../node_modules/openzeppelin-solidity/contracts/crowdsale/Crowdsale.sol\";\nimport \"../node_modules/openzeppelin-solidity/contracts/crowdsale/emission/MintedCrowdsale.sol\";\nimport \"../node_modules/openzeppelin-solidity/contracts/crowdsale/validation/CappedCrowdsale.sol\";\n\ncontract ExampleTokenCrowdsale is Crowdsale, MintedCrowdsale, CappedCrowdsale{\n\n\n\tmapping(address => uint256) public contributions;\n    uint256 tokensLeft;\n    \n    \n\tconstructor(uint256 _rate,\n\t  address _wallet,\n\t  ERC20 _token,\n\t  uint256 _cap)\n\tCrowdsale(_rate, address(uint160(_wallet)), _token)\n\tCappedCrowdsale(_cap)\n\tpublic{\n        tokensLeft = _cap * _rate;\n\t}\n\n    function getTokensLeft() public view returns (uint256) {\n        return tokensLeft;\n    }\n  function _preValidatePurchase(\n    address _beneficiary,\n    uint256 _weiAmount\n  )\n    internal\n  {\n    //minimum investor Contribution - 50000000000000000000\n\t//minimum investor Contribution - 50000000000000000000\n\tuint256 investorMinCap = 5000000000000000000;\n\tuint256 investorHardCap = 50000000000000000000;\n    \n      // also works if commented out\n    uint256 _existingContribution = contributions[_beneficiary];\n    uint256 _newContribution = _weiAmount;\n    require(_existingContribution == 0, \"already invested in the crowdsale\");\n    require(_newContribution >= investorMinCap  && _newContribution <= investorHardCap, \"trying to buy too little or too much ether\");\n    super._preValidatePurchase(_beneficiary, _weiAmount);\n    tokensLeft = tokensLeft.sub(_weiAmount* this.rate()) ;\n\tcontributions[_beneficiary] = _existingContribution.add(_newContribution);      \n    \n  }\n}",
  "sourcePath": "C:/Users/nicol/Desktop/Programming/hw3/new_hw3/contracts/ExampleTokenCrowdsale.sol",
  "compiler": {
    "name": "solc",
    "version": "0.5.0+commit.1d4f565a.Emscripten.clang"
  },
  "schemaVersion": "3.0.3",
  "updatedAt": "2019-03-13T22:26:25.178Z",
  "devdoc": {
    "methods": {
      "buyTokens(address)": {
        "details": "low level token purchase ***DO NOT OVERRIDE*** This function has a non-reentrancy guard, so it shouldn't be called by another `nonReentrant` function.",
        "params": {
          "beneficiary": "Recipient of the token purchase"
        }
      },
      "cap()": {
        "return": "the cap of the crowdsale."
      },
      "capReached()": {
        "details": "Checks whether the cap has been reached.",
        "return": "Whether the cap was reached"
      },
      "rate()": {
        "return": "the number of token units a buyer gets per wei."
      },
      "token()": {
        "return": "the token being sold."
      },
      "wallet()": {
        "return": "the address where funds are collected."
      },
      "weiRaised()": {
        "return": "the amount of wei raised."
      }
    }
  },
  "userdoc": {
    "methods": {}
  }
}